{"abi":[{"type":"constructor","inputs":[{"name":"usdc","type":"address","internalType":"address"},{"name":"_resolver","type":"address","internalType":"address"},{"name":"_tokenId","type":"bytes32","internalType":"bytes32"},{"name":"_tokenChain","type":"string","internalType":"string"},{"name":"_tokenSymbol","type":"string","internalType":"string"},{"name":"_baselinePrice","type":"uint256","internalType":"uint256"},{"name":"_thresholdBps","type":"uint256","internalType":"uint256"},{"name":"_duration","type":"uint256","internalType":"uint256"},{"name":"_traceHash","type":"bytes32","internalType":"bytes32"},{"name":"_initialLiquidity","type":"uint256","internalType":"uint256"}],"stateMutability":"nonpayable"},{"type":"function","name":"USDC","inputs":[],"outputs":[{"name":"","type":"address","internalType":"contract IERC20"}],"stateMutability":"view"},{"type":"function","name":"baselinePrice","inputs":[],"outputs":[{"name":"","type":"uint256","internalType":"uint256"}],"stateMutability":"view"},{"type":"function","name":"bet","inputs":[{"name":"yes","type":"bool","internalType":"bool"},{"name":"amount","type":"uint256","internalType":"uint256"}],"outputs":[],"stateMutability":"nonpayable"},{"type":"function","name":"bettingClosesAt","inputs":[],"outputs":[{"name":"","type":"uint256","internalType":"uint256"}],"stateMutability":"view"},{"type":"function","name":"cancelIfUnresolved","inputs":[],"outputs":[],"stateMutability":"nonpayable"},{"type":"function","name":"claim","inputs":[],"outputs":[],"stateMutability":"nonpayable"},{"type":"function","name":"createdAt","inputs":[],"outputs":[{"name":"","type":"uint256","internalType":"uint256"}],"stateMutability":"view"},{"type":"function","name":"noPool","inputs":[],"outputs":[{"name":"","type":"uint256","internalType":"uint256"}],"stateMutability":"view"},{"type":"function","name":"noShares","inputs":[{"name":"","type":"address","internalType":"address"}],"outputs":[{"name":"","type":"uint256","internalType":"uint256"}],"stateMutability":"view"},{"type":"function","name":"refund","inputs":[],"outputs":[],"stateMutability":"nonpayable"},{"type":"function","name":"resolve","inputs":[{"name":"yes","type":"bool","internalType":"bool"}],"outputs":[],"stateMutability":"nonpayable"},{"type":"function","name":"resolvedYes","inputs":[],"outputs":[{"name":"","type":"bool","internalType":"bool"}],"stateMutability":"view"},{"type":"function","name":"resolver","inputs":[],"outputs":[{"name":"","type":"address","internalType":"address"}],"stateMutability":"view"},{"type":"function","name":"resolvesAt","inputs":[],"outputs":[{"name":"","type":"uint256","internalType":"uint256"}],"stateMutability":"view"},{"type":"function","name":"state","inputs":[],"outputs":[{"name":"","type":"uint8","internalType":"enum BinaryMarket.State"}],"stateMutability":"view"},{"type":"function","name":"thresholdBps","inputs":[],"outputs":[{"name":"","type":"uint256","internalType":"uint256"}],"stateMutability":"view"},{"type":"function","name":"tokenChain","inputs":[],"outputs":[{"name":"","type":"string","internalType":"string"}],"stateMutability":"view"},{"type":"function","name":"tokenId","inputs":[],"outputs":[{"name":"","type":"bytes32","internalType":"bytes32"}],"stateMutability":"view"},{"type":"function","name":"tokenSymbol","inputs":[],"outputs":[{"name":"","type":"string","internalType":"string"}],"stateMutability":"view"},{"type":"function","name":"traceHash","inputs":[],"outputs":[{"name":"","type":"bytes32","internalType":"bytes32"}],"stateMutability":"view"},{"type":"function","name":"yesPool","inputs":[],"outputs":[{"name":"","type":"uint256","internalType":"uint256"}],"stateMutability":"view"},{"type":"function","name":"yesShares","inputs":[{"name":"","type":"address","internalType":"address"}],"outputs":[{"name":"","type":"uint256","internalType":"uint256"}],"stateMutability":"view"},{"type":"event","name":"Bet","inputs":[{"name":"bettor","type":"address","indexed":true,"internalType":"address"},{"name":"yes","type":"bool","indexed":false,"internalType":"bool"},{"name":"amount","type":"uint256","indexed":false,"internalType":"uint256"},{"name":"shares","type":"uint256","indexed":false,"internalType":"uint256"}],"anonymous":false},{"type":"event","name":"Cancelled","inputs":[],"anonymous":false},{"type":"event","name":"Claimed","inputs":[{"name":"claimant","type":"address","indexed":true,"internalType":"address"},{"name":"amount","type":"uint256","indexed":false,"internalType":"uint256"}],"anonymous":false},{"type":"event","name":"Resolved","inputs":[{"name":"yes","type":"bool","indexed":false,"internalType":"bool"}],"anonymous":false},{"type":"error","name":"AlreadyCancelled","inputs":[]},{"type":"error","name":"AlreadyResolved","inputs":[]},{"type":"error","name":"BettingClosed","inputs":[]},{"type":"error","name":"GracePeriodNotElapsed","inputs":[]},{"type":"error","name":"MarketNotExpired","inputs":[]},{"type":"error","name":"MarketNotOpen","inputs":[]},{"type":"error","name":"NotResolver","inputs":[]},{"type":"error","name":"NothingToClaim","inputs":[]},{"type":"error","name":"TransferFailed","inputs":[]},{"type":"error","name":"ZeroAmount","inputs":[]}],"bytecode":{"object":"0x6101a060405234620004255762001316803803806200001e8162000429565b92833981019061014091828282031262000425576200003d826200044f565b906020936200004e8585016200044f565b9260408501519260608601519660018060401b03978881116200042557826200007991890162000464565b9160808801519089821162000425576200009591890162000464565b9760a088015160c08901519160e08a0151936101009b8c8c015199610120809d01519860018060a01b03166080526101809b8c5260a05286519083821162000343575f54916001988984811c941680156200041a575b8585101462000324578190601f94858111620003c7575b50859085831160011462000363575f9262000357575b50505f19600383901b1c191690891b175f555b805193841162000343578754928884811c9416801562000338575b8185101462000324578383869511620002cd575b50809284116001146200026657505f926200025a575b50505f19600383901b1c191690851b1784555b60c05260e0526101609485524288524201908142116200024657818752610e0f1982019182116200024657829184521c806002558103908111620002465760035560405193610e419586620004d5873960805186818161038d015281816106670152818161085f0152610a5c015260a05186610b64015260c05186610cb1015260e051866102c40152518561024c015251848181610177015261035601525183818161031c01526107fd01525182610128015251818181610ba30152610ce60152f35b634e487b7160e01b5f52601160045260245ffd5b015190505f8062000170565b9190889450601f198416855f52835f20935f905b828210620002b357505084116200029a575b505050811b01845562000183565b01515f1960f88460031b161c191690555f80806200028c565b8484015186558b979095019493840193908101906200027a565b9091929350885f52815f208480870160051c8201928488106200031a575b9187968c92969594930160051c01915b8281106200030b5750506200015a565b5f81558796508b9101620002fb565b92508192620002eb565b634e487b7160e01b5f52602260045260245ffd5b93607f169362000146565b634e487b7160e01b5f52604160045260245ffd5b015190505f8062000118565b908b9350601f198316915f8052875f20925f5b89828210620003b0575050841162000397575b505050811b015f556200012b565b01515f1960f88460031b161c191690555f808062000389565b8385015186558f9790950194938401930162000376565b9091505f8052855f208580850160051c82019288861062000410575b918d91869594930160051c01915b8281106200040157505062000102565b5f81558594508d9101620003f1565b92508192620003e3565b93607f1693620000eb565b5f80fd5b6040519190601f01601f191682016001600160401b038111838210176200034357604052565b51906001600160a01b03821682036200042557565b919080601f84011215620004255782516001600160401b03811162000343576020906200049a601f8201601f1916830162000429565b9281845282828701011162000425575f5b818110620004c05750825f9394955001015290565b8581018301518482018401528201620004ab56fe6080604090808252600480361015610015575f80fd5b5f3560e01c91826304f3bcec14610cd45750816307fe2f7114610c9a57816308d367fb14610c745781630bede3f814610b8757816317d70f7c14610b4d5781634e71d92d146109c55781635229a6fd146107d757816356bc793e1461079c578163590e1ae3146105d25781636f1d4ea4146105b457816372915725146104f75781637b61c320146103f5578163818fa941146103bc57816389a302711461037957816391b1fbf71461033f578163a3aeebd714610305578163a3b5afb1146102e7578163c1144b71146102ad578163c19d93fb1461026f578163cf09e0d014610235578163e776b00a1461014f575063f736c01914610112575f80fd5b3461014b575f36600319011261014b57602090517f00000000000000000000000000000000000000000000000000000000000000008152f35b5f80fd5b823461014b575f36600319011261014b576006549060ff8216600381101561022257610213577f0000000000000000000000000000000000000000000000000000000000000000804210610203576201518081018091116101f05742106101e15760ff1982166002176006557f63b958841f79ab97cb5456da181454b9932c0e15a3b17f1cbd27e2a8bc6104375f80a1005b51631f382f6360e21b81529050fd5b601184634e487b7160e01b5f525260245ffd5b815163671eb0c560e01b81528490fd5b5163300b4e3360e21b81529050fd5b602184634e487b7160e01b5f525260245ffd5b823461014b575f36600319011261014b57602090517f00000000000000000000000000000000000000000000000000000000000000008152f35b823461014b575f36600319011261014b5760ff60065416905190600381101561029a57602092508152f35b602183634e487b7160e01b5f525260245ffd5b823461014b575f36600319011261014b57602090517f00000000000000000000000000000000000000000000000000000000000000008152f35b823461014b575f36600319011261014b576020906003549051908152f35b823461014b575f36600319011261014b57602090517f00000000000000000000000000000000000000000000000000000000000000008152f35b823461014b575f36600319011261014b57602090517f00000000000000000000000000000000000000000000000000000000000000008152f35b823461014b575f36600319011261014b57517f00000000000000000000000000000000000000000000000000000000000000006001600160a01b03168152602090f35b823461014b57602036600319011261014b5781356001600160a01b038116929083900361014b576020925f528252805f20549051908152f35b823461014b575f36600319011261014b578051905f9260018054908160011c916001811680156104ed575b60209485851082146104da57508387529081156104ba5750600114610460575b5050506104528261045c940383610d24565b5191829182610d5a565b0390f35b60015f9081529295507fb10e2d527612073b26eecdfd717e6a320cf44b4afac2b0732d9fcbe2b7fa0cf65b8284106104a7575050508261045c946104529282010194610440565b805486850188015292860192810161048b565b60ff1916868501525050151560051b83010192506104528261045c610440565b602290634e487b7160e01b5f525260245ffd5b92607f1692610420565b823461014b575f36600319011261014b578051905f925f5460018160011c916001811680156105aa575b60209485851082146104da57508387529081156104ba5750600114610552575050506104528261045c940383610d24565b5f8080529295507f290decd9548b62a8d60345a988386fc84ba6bc95484008f6362f93160ef3e5635b828410610597575050508261045c946104529282010194610440565b805486850188015292860192810161057b565b92607f1692610521565b823461014b575f36600319011261014b576020906002549051908152f35b823461014b575f36600319011261014b5760ff60065416600381101561029a5760020361078f5761060860025460035490610da1565b90335f52602090838252805f20549260058352815f2054841594858096610787575b610777575f951561074c575b5080610717575b5050805163a9059cbb60e01b8152338582019081526020810185905283908290819060400103815f7f00000000000000000000000000000000000000000000000000000000000000006001600160a01b03165af190811561070d575f916106e0575b50156106d157907fd8138f8a3f377c5259ca548e70e4c2de94f129f5a11036a15b69513cba2b426a91519283523392a2005b516312171d8360e31b81528390fd5b6107009150833d8511610706575b6106f88183610d24565b810190610df3565b8561069f565b503d6106ee565b82513d5f823e3d90fd5b61073561074493959261073e92335f52600587525f88812055610dc2565b60035490610dd5565b90610da1565b91848061063d565b6107709195508261076791335f528887525f86812055610dc2565b60025490610dd5565b9386610636565b83516312d37ee560e31b81528790fd5b50811561062a565b5163300b4e3360e21b8152fd5b90503461014b57602036600319011261014b57356001600160a01b038116919082900361014b576020915f5260058252805f20549051908152f35b90503461014b578160031936011261014b576107f1610d15565b9160243580156109b7577f00000000000000000000000000000000000000000000000000000000000000004210156109a95760ff6006541660038110156102225761099b5781516323b872dd60e01b815233848201523060248201526044810182905260209081816064815f7f00000000000000000000000000000000000000000000000000000000000000006001600160a01b03165af1908115610991575f91610974575b501561096557841561091e57600254936108d0836108ca6108b88883610dc2565b6108c483600354610da1565b90610dd5565b96610da1565b600255335f528152825f206108e6858254610da1565b90555b825194151585528401528201527f98faca7f4ecb02029479b61f140b7ba7343a64c792508884a23d2a92846adfc760603392a2005b6003549350610946826109406109348783610dc2565b6108c483600254610da1565b95610da1565b600355335f5260058152825f2061095e858254610da1565b90556108e9565b5050516312171d8360e31b8152fd5b61098b9150823d8411610706576106f88183610d24565b5f610897565b84513d5f823e3d90fd5b505163300b4e3360e21b8152fd5b50516330e2a62560e11b8152fd5b5051631f2a200560e01b8152fd5b823461014b575f36600319011261014b5760065460ff8116600381101561022257600103610b3f5760ff6109fe60025460035490610da1565b9160081c1615610b0d57335f5282602052815f20548015610afe57610a329161076791335f52856020525f85812055610dc2565b915b815163a9059cbb60e01b8152338282019081526020818101869052908290819060400103815f7f00000000000000000000000000000000000000000000000000000000000000006001600160a01b03165af1908115610af4575f91610ad5575b5015610ac75750519081527fd8138f8a3f377c5259ca548e70e4c2de94f129f5a11036a15b69513cba2b426a60203392a2005b90516312171d8360e31b8152fd5b610aee915060203d602011610706576106f88183610d24565b84610a94565b83513d5f823e3d90fd5b5050516312d37ee560e31b8152fd5b335f526005602052815f20548015610afe57610b399161073591335f5260056020525f85812055610dc2565b91610a34565b50516312d37ee560e31b8152fd5b823461014b575f36600319011261014b57602090517f00000000000000000000000000000000000000000000000000000000000000008152f35b823461014b57602036600319011261014b57610ba1610d15565b7f00000000000000000000000000000000000000000000000000000000000000006001600160a01b03163303610c66576006549260ff84166003811015610c535760018114610c4457600214610c36577fdabf623a6bec72ad159e2d9533e7149ec45bfc657e39f49fb6a9509852dc77dc6020858560018615159261ff008460081b169061ffff1916171760065551908152a1005b82516354e3762560e01b8152fd5b5082516336ab81e160e11b8152fd5b602182634e487b7160e01b5f525260245ffd5b5051635d154fe160e11b8152fd5b823461014b575f36600319011261014b5760209060ff60065460081c1690519015158152f35b823461014b575f36600319011261014b57602090517f00000000000000000000000000000000000000000000000000000000000000008152f35b3461014b575f36600319011261014b577f00000000000000000000000000000000000000000000000000000000000000006001600160a01b03168152602090f35b60043590811515820361014b57565b90601f8019910116810190811067ffffffffffffffff821117610d4657604052565b634e487b7160e01b5f52604160045260245ffd5b602080825282518183018190529093925f5b828110610d8d57505060409293505f838284010152601f8019910116010190565b818101860151848201604001528501610d6c565b91908201809211610dae57565b634e487b7160e01b5f52601160045260245ffd5b81810292918115918404141715610dae57565b8115610ddf570490565b634e487b7160e01b5f52601260045260245ffd5b9081602091031261014b5751801515810361014b579056fea26469706673582212205beeb287e9a4559708226bd40bf9ce2943b1e46451a83f26df4c7b55a43ddb0164736f6c63430008180033","linkReferences":{}},"methodIdentifiers":{"USDC()":"89a30271","baselinePrice()":"07fe2f71","bet(bool,uint256)":"5229a6fd","bettingClosesAt()":"a3aeebd7","cancelIfUnresolved()":"e776b00a","claim()":"4e71d92d","createdAt()":"cf09e0d0","noPool()":"a3b5afb1","noShares(address)":"56bc793e","refund()":"590e1ae3","resolve(bool)":"0bede3f8","resolvedYes()":"08d367fb","resolver()":"04f3bcec","resolvesAt()":"91b1fbf7","state()":"c19d93fb","thresholdBps()":"c1144b71","tokenChain()":"72915725","tokenId()":"17d70f7c","tokenSymbol()":"7b61c320","traceHash()":"f736c019","yesPool()":"6f1d4ea4","yesShares(address)":"818fa941"},"id":20}