{"abi":[{"type":"constructor","inputs":[{"name":"_agent","type":"address","internalType":"address"}],"stateMutability":"nonpayable"},{"type":"function","name":"agent","inputs":[],"outputs":[{"name":"","type":"address","internalType":"address"}],"stateMutability":"view"},{"type":"function","name":"getTrace","inputs":[{"name":"traceHash","type":"bytes32","internalType":"bytes32"}],"outputs":[{"name":"ipfsCid","type":"string","internalType":"string"},{"name":"signature","type":"bytes","internalType":"bytes"},{"name":"timestamp","type":"uint256","internalType":"uint256"}],"stateMutability":"view"},{"type":"function","name":"owner","inputs":[],"outputs":[{"name":"","type":"address","internalType":"address"}],"stateMutability":"view"},{"type":"function","name":"recordTrace","inputs":[{"name":"traceHash","type":"bytes32","internalType":"bytes32"},{"name":"ipfsCid","type":"string","internalType":"string"},{"name":"signature","type":"bytes","internalType":"bytes"}],"outputs":[],"stateMutability":"nonpayable"},{"type":"function","name":"setAgent","inputs":[{"name":"_agent","type":"address","internalType":"address"}],"outputs":[],"stateMutability":"nonpayable"},{"type":"event","name":"AgentUpdated","inputs":[{"name":"newAgent","type":"address","indexed":true,"internalType":"address"}],"anonymous":false},{"type":"event","name":"TraceRecorded","inputs":[{"name":"traceHash","type":"bytes32","indexed":true,"internalType":"bytes32"},{"name":"ipfsCid","type":"string","indexed":false,"internalType":"string"},{"name":"timestamp","type":"uint256","indexed":false,"internalType":"uint256"}],"anonymous":false},{"type":"error","name":"AlreadyRecorded","inputs":[]},{"type":"error","name":"NotAgent","inputs":[]},{"type":"error","name":"ZeroAddress","inputs":[]}],"bytecode":{"object":"0x60803461009057601f6107d338819003918201601f19168301916001600160401b038311848410176100945780849260209460405283398101031261009057516001600160a01b0381169081900361009057801561007e5760018060a01b0319338160015416176001555f5416175f5560405161072a90816100a98239f35b60405163d92e233d60e01b8152600490fd5b5f80fd5b634e487b7160e01b5f52604160045260245ffdfe6080604090808252600480361015610015575f80fd5b5f3560e01c9182630adac9ec146101c05750816336a711121461013a5781638da5cb5b14610112578163bcf685ed14610081575063f5ff5c7614610057575f80fd5b3461007d575f36600319011261007d575f5490516001600160a01b039091168152602090f35b5f80fd5b90503461007d57602036600319011261007d5780356001600160a01b03818116939184900361007d576001541633036101055782156100f85782806bffffffffffffffffffffffff60a01b5f5416175f557fe9f337c154e801e0f86b6bc993df9a2cd349bb210385592c7a52e38ea726334f5f80a2005b5163d92e233d60e01b8152fd5b51630d9ab13f60e01b8152fd5b823461007d575f36600319011261007d5760015490516001600160a01b039091168152602090f35b823461007d57602036600319011261007d576101aa91355f526002602052805f209060028201546101b860016101978451956101818761017a8184610663565b0388610598565b61019086518094819301610663565b0382610598565b8351958695606087526060870190610522565b908582036020870152610522565b918301520390f35b83823461007d57606036600319011261007d5780359167ffffffffffffffff9160243583811161007d576101f790369083016104f4565b93909160443582811161007d5761021190369083016104f4565b5f5491989093916001600160a01b031633036104e65750865f526020976002895261023e865f2054610560565b6104d65785519360608501858110848211176104c357875261026f9190610266368a896105ce565b865236916105ce565b9088840191825285840192428452885f5260028a52865f20945180518381116104b0576102a6816102a08954610560565b89610614565b8b8c601f831160011461044b575081906102d5935f92610440575b50508160011b915f199060031b1c19161790565b85555b60019060018601935190815193841161042d5750610300836102fa8654610560565b86610614565b8a91601f841160011461039a57507fb48652d7f583711e518e676b7f158626c202b99ecd40325fddc5337865c6d9d8999a948996929461035e8560609b9a968a986002965f9261038f5750508160011b915f199060031b1c19161790565b90555b519101558451968588968752860152858501375f8383018501524290830152601f01601f19168101030190a2005b015190505f806102c1565b9190601f198416855f528c5f20935f905b828210610416575050946001858c99957fb48652d7f583711e518e676b7f158626c202b99ecd40325fddc5337865c6d9d89e9f99949560029660609e9d998d9b106103fe575b505050811b019055610361565b01515f1960f88460031b161c191690558f80806103f1565b83850151865594850194938e0193908e01906103ab565b604190634e487b7160e01b5f525260245ffd5b015190508d806102c1565b9192601f198416895f52835f20935f905b828210610498575050908460019594939210610480575b505050811b0185556102d8565b01515f1960f88460031b161c191690558c8080610473565b8060018697829497870151815501960194019061045c565b604183634e487b7160e01b5f525260245ffd5b604185634e487b7160e01b5f525260245ffd5b855163081da57f60e11b81528390fd5b630d9ab13f60e01b81529050fd5b9181601f8401121561007d5782359167ffffffffffffffff831161007d576020838186019501011161007d57565b91908251928382525f5b84811061054c575050825f602080949584010152601f8019910116010190565b60208183018101518483018201520161052c565b90600182811c9216801561058e575b602083101461057a57565b634e487b7160e01b5f52602260045260245ffd5b91607f169161056f565b90601f8019910116810190811067ffffffffffffffff8211176105ba57604052565b634e487b7160e01b5f52604160045260245ffd5b92919267ffffffffffffffff82116105ba57604051916105f8601f8201601f191660200184610598565b82948184528183011161007d578281602093845f960137010152565b601f821161062157505050565b5f5260205f20906020601f840160051c83019310610659575b601f0160051c01905b81811061064e575050565b5f8155600101610643565b909150819061063a565b80545f939261067182610560565b918282526020936001916001811690815f146106d55750600114610697575b5050505050565b90939495505f92919252835f2092845f945b8386106106c157505050500101905f80808080610690565b8054858701830152940193859082016106a9565b60ff19168685015250505090151560051b010191505f8080808061069056fea26469706673582212201ed4db1ac5161e51d9181503d26bf7c1d50d3976630feac47644bf4cdd545a3764736f6c63430008180033","linkReferences":{}},"methodIdentifiers":{"agent()":"f5ff5c76","getTrace(bytes32)":"36a71112","owner()":"8da5cb5b","recordTrace(bytes32,string,bytes)":"0adac9ec","setAgent(address)":"bcf685ed"},"id":19}